:020000040800F2
:10000000200900205D040008F5010008F701000840
:10001000FB010008FF0100080302000800000000C7
:1000200000000000000000000000000007020008BF
:1000300009020008000000000B0200080D02000881
:1000400077040008770400087704000877040008A4
:100050007704000877040008770400087704000894
:100060007704000877040008770400087704000884
:100070007704000877040008770400087704000874
:100080007704000877040008770400087704000864
:100090007704000877040008770400082D3A000868
:1000A0007704000877040008770400087704000844
:1000B000512A0008F1260008392A000877040008B0
:1000C0007704000877040008770400087704000824
:1000D00077040008770400087704000877300008E8
:1000E00077040008770400087704000800F002F89D
:1000F00000F06AF80AA090E8000C82448344AAF158
:100100000107DA4501D100F05FF8AFF2090EBAE855
:100110000F0013F0010F18BFFB1A43F0010318473B
:100120006CBE00008CBE00000A444FF0000C10F8BA
:10013000013B13F0070408BF10F8014B1D1108BF65
:1001400010F8015B641E05D010F8016B641E01F805
:10015000016BF9D113F0080F1EBF10F8014BAD1C55
:100160000C1B09D16D1E58BF01F801CBFAD505E073
:1001700014F8016B01F8016B6D1EF9D59142D6D3CD
:10018000704700000023002400250026103A28BFF5
:1001900078C1FBD8520728BF30C148BF0B607047F9
:1001A00066290AF02687642907F0888300207047B3
:1001B0001FB507F0C3FF04000020002109F0B0FDC7
:1001C000E0601FBD10B510BD08F0D4F81146FFF770
:1001D000EFFF00F00DF908F0F2F803B4FFF7F2FFBB
:1001E00003BC02F0B1F8000030BF72B662B680F313
:1001F00008887047704700BFFEE700BFFEE700BFFA
:10020000FEE700BFFEE77047704770477047000089
:100210000CB50020019000906C48006840F48030DC
:100220006A49086000BF6948006800F40030009027
:100230000198401C0190009818B90198B0F5A06F82
:10024000F1D16248006800F4003010B10120009044
:1002500001E0002000900098012843D15C4800682C
:1002600040F010005A4908600846006820F003007A
:1002700008600846006840F0020008605348406883
:10028000524948600846406848600846406840F463
:10029000806048600846406820F47C10486008464A
:1002A000406840F4E81048600846006840F08070FC
:1002B000086000BF4548006800F000700028F9D0D1
:1002C0004248406820F003004049486008464068C2
:1002D00040F00200486000BF3C48406800F00C005D
:1002E0000828F9D10CBD10B5FFF792FF10BD10B56D
:1002F0003648006840F0010034490860084640680C
:10030000344908403149486008460068324908408D
:100310002E4908600846006820F4802008600846DE
:10032000406820F4FE0048604FF41F008860FFF72B
:10033000DAFF4FF000602949086010BD10B50021B8
:1003400000200022214B5B6803F00C0121B104293D
:1003500006D0082928D107E0214B224C236027E052
:100360001F4B204C236023E0184B5B6803F4701094
:10037000164B5B6803F48032022303EB904022B9F2
:10038000194B4343174C23600DE0104B5B6803F49B
:10039000003323B1144B4343124C236003E0104B52
:1003A0004343104C236003E00D4B0E4C236000BF11
:1003B00000BF064B5B68C3F303130C4CE15C094BB5
:1003C0001B68CB40074C236010BD000000100240AA
:1003D000002002400000FFF8FFFFF6FE08ED00E0FD
:1003E00000127A000000002000093D0004000020F7
:1003F00001F0E2FD4FF4FA3001F0C4FF022001F0F9
:1004000035FF012001F032FF02F002F802F032F86D
:10041000022001F041FE002141F61F4002F0EAF9FE
:1004200002F040FA02F08BFA02F042FB06F0CFFD38
:1004300006F0E1FD02F0FEFF0AE001200549087028
:1004400000200549087000BF024800780028FBD151
:10045000F3E70000490000204800002009488047D9
:1004600009480047FEE7FEE7FEE7FEE7FEE7FEE796
:10047000FEE7FEE7FEE7FEE704480549054A064BAE
:1004800070470000EF020008ED0000082003002084
:1004900020090020200500202005002031490143CB
:1004A000314A1160704770B5002100230F22C478D3
:1004B00004B32D4C246804F4E064C4F5E064210A1C
:1004C000C1F10403CA40447804FA03F1847814406B
:1004D00021430901254C0678A155047804F01F0535
:1004E0000124AC4005786D11AD0005F1E025C5F89B
:1004F000004109E0047804F01F050124AC401C4DC4
:100500000678761145F8264070BD1A4A0A40024323
:10051000154B1B1F1A60704739B1134A121D126820
:100520000243114B1B1D1A6006E00F4A121D126890
:1005300082430D4B1B1D1A607047042808D14FF0F1
:10054000E021096941F004014FF0E022116107E068
:100550004FF0E021096921F004014FF0E022116120
:10056000704700000000FA050CED00E000E400E038
:1005700080E100E080FFFF1F002044490860091D62
:100580000860091D0860091D086041483F49143191
:100590000860704700213D498279002A3AD00A4616
:1005A000126803689A430B461A600A1D12680368B2
:1005B0009A430B1D1A60027911440A6803681A43B2
:1005C0000A60324A0832126803689A432F4B083394
:1005D0001A601A1D126803689A432C4B0C331A6078
:1005E0004279102A0ED11A1F126803681A43274B4A
:1005F00008331A601A1D126803681A43234B0C3320
:100600001A600DE02149427911440A6803681A43CF
:100610000A6005E0027911440A6803689A430A6097
:1006200070470021016001710C214171002181712D
:1006300070471649103109680143144A103211609D
:10064000704701460020114A143212680A400AB16C
:10065000012000E0002070470C4914310860704709
:10066000014600200022094B1B6803EA0102074BE8
:1006700014331B680B4013B10AB1012000E00020C5
:1006800070470249143108607047000000040140BF
:10069000FFFF0F0010B50446CC48844208D1012169
:1006A000042000F02DFB0021042000F029FB46E08F
:1006B000C748844208D10121082000F021FB002115
:1006C000082000F01DFB3AE0C248844208D1012115
:1006D000102000F015FB0021102000F011FB2EE08F
:1006E000BD48844208D10121202000F009FB0021EF
:1006F000202000F005FB22E0B848844208D1012107
:10070000402000F0FDFA0021402000F0F9FA16E048
:10071000B348844208D10121802000F0F1FA002181
:10072000802000F0EDFA0AE0AE48844207D10121B2
:10073000801500F0E5FA0021A01500F0E1FA10BDE7
:1007400010B50121084600F0DBFA0021012000F07D
:10075000D7FA10BD2DE9F041024600250026002001
:1007600000230024002791F803C00CF00F0591F836
:1007700003C00CF0100CBCF1000F03D091F802C0C4
:100780004CEA050591F800C0BCF1000F31D01468A7
:1007900000202BE04FF0010C0CFA00F3B1F800C080
:1007A0000CEA03069E4220D183004FF00F0C0CFA96
:1007B00003F7BC4305FA03FC4CEA040491F803C0B8
:1007C000BCF1280F06D14FF0010C0CFA00FCC2F866
:1007D00014C00AE091F803C0BCF1480F05D14FF0F6
:1007E000010C0CFA00FCC2F810C0401C0828D1D340
:1007F0001460B1F800C0BCF1FF0F34DD5468002074
:100800002EE000F1080C4FF0010808FA0CF3B1F8E3
:1008100000C00CEA03069E4221D183004FF00F0C6A
:100820000CFA03F7BC4305FA03FC4CEA040491F804
:1008300003C0BCF1280F05D100F1080C08FA0CF830
:10084000C2F8148091F803C0BCF1480F07D100F141
:10085000080C4FF0010808FA0CF8C2F81080401C90
:100860000828CED35460BDE8F0814FF6FF710180B7
:10087000022181700421C1707047024600209368F4
:100880000B400BB1012000E0002070470146886852
:1008900080B2704702460020D3680B400BB10120A4
:1008A00000E0002070470146C86880B270470161CF
:1008B0007047416170470AB1016100E041617047D2
:1008C000C16070474FF480320A4382618161826166
:1008D00082698269704702460020434B18684FF6D0
:1008E0008073184040EA021008433F4B186070477D
:1008F0003E49C8617047F0B50A4600230024002134
:10090000002500F00046B6F1004F02D1364EF169E5
:1009100001E0354E7168C0F3034583B200F4401620
:10092000B6F5401F08D121F070612F4E766826F091
:1009300070662D4F7E6012E000F48016B6F5801FC1
:1009400006D1032606FA05F4A14341F0706106E0E2
:10095000460D360103FA06F6B14341F0706122B14B
:10096000460D360103FA06F6314300F00046B6F1B3
:10097000004F02D11C4EF16101E01B4E7160F0BDD1
:1009800030B500228B071C0F0F2303FA04F2164B1D
:1009900008338C1053F824309343134C08348D10D3
:1009A00044F8253023468C1053F824308C07240F4C
:1009B00000FA04F423430C4C08348D1044F825301D
:1009C00030BD0A49DC310860704700000008014072
:1009D000000C0140001001400014014000180140CB
:1009E000001C0140002001400000014000002042A6
:1009F000DF48006840F00100DD49086008464068B3
:100A0000DC490840DA49486008460068DA4908408D
:100A1000D74908600846006820F48020086008462E
:100A2000406820F4FE0048604FF41F008860704763
:100A3000CF49096821F48031CD4A11601146096817
:100A400021F480211160B0F5803F03D0B0F5802FF4
:100A50000ED106E0C649096841F48031C44A1160EC
:100A600007E0C349096841F4A021C14A116000E0D0
:100A700000BF00BF704710B50146002200230020D0
:100A80004A11012A02D1BA4C236806E0022A02D197
:100A9000B74C236A01E0B64C636A01F01F020124DF
:100AA00094401C400CB1012000E0002010BD38B57E
:100AB000002000900024002500BF3120FFF7DBFF5D
:100AC00005460098401C00900098B0F5A06F01D03A
:100AD000002DF2D03120FFF7CEFF08B1012400E055
:100AE0000024204638BD01460020A14A106820F0AD
:100AF000F80040EAC10010607047A04908607047E4
:100B0000024600209A4B586820F47C1042EA010308
:100B10001843974B586070479849086670470146DC
:100B20000020934A506820F003000843506070474B
:100B30008F48406800F00C007047014600208C4A46
:100B4000506820F0F00008435060704701460020D4
:100B5000874A506820F4E0600843506070470146BF
:100B60000020834A506820F4605040EAC100506081
:100B7000704729B17E4A527A02437D4B5A7204E093
:100B80007B4A527A82437A4B5A7270477B49D831FA
:100B90000860704701460020754A506820F44040C4
:100BA0000843506070470021714A20321170704A2A
:100BB00082F82010012802D004280AD104E0012183
:100BC0006B4A2032117005E00521694A203211700C
:100BD00000E000BF00BF7047694908607047644982
:100BE000096A0143624A11627047654944390860E5
:100BF000704730B500210022002400235C4D6D6851
:100C000005F00C0121B1042905D0082923D105E004
:100C10005C4D056022E05B4D05601FE0544D6D6842
:100C200005F47012524D6D6805F48034022505EB11
:100C300092421CB9544D554305600BE04C4D6D6814
:100C400005F400351DB1504D5543056002E04D4D92
:100C50005543056002E04B4D056000BF00BF444DA9
:100C60006D6805F0F0010909484D6B5C0568DD40D1
:100C700045603F4D6D6805F4E061090A434D6B5CCA
:100C80004568DD4085603A4D6D6805F46051C90ADC
:100C90003E4D6B5C4568DD40C560354D6D6805F4C3
:100CA0004041890B3A4D6B5CC568B5FBF3F50561B6
:100CB00030BD29B12E4A526902432D4B5A6104E0DE
:100CC0002B4A526982432A4B5A61704729B1284AFC
:100CD00092690243264B9A6104E0254A9269824355
:100CE000234B9A61704729B1214AD2690243204BB4
:100CF000DA6104E01E4AD26982431D4BDA61704713
:100D000029B11B4AD2680243194BDA6004E0184A41
:100D1000D2688243164BDA60704729B1144A1269CF
:100D20000243134B1A6104E0114A12698243104BCB
:100D30001A61704712494039086070470F49C8640A
:100D400070470B49C87170470948406A40F080708D
:100D500007494862704701460020054A92680A40E8
:100D60000AB1012000E000207047014988727047F5
:100D7000001002400000FFF8FFFFF6FE00004242B4
:100D80008004424200127A0000093D006400002005
:100D90007400002010B50446FE48844208D10121A9
:100DA000C014FFF7ADFF0021E014FFF7A9FFC4E076
:100DB000B4F1804F08D101210846FFF7AEFF0021B2
:100DC0000120FFF7AAFFB8E0F348844208D10121CF
:100DD0000220FFF7A2FF00210220FFF79EFFACE0F8
:100DE000EE48844208D101210420FFF796FF00213C
:100DF0000420FFF792FFA0E0E948844208D10121D6
:100E00000820FFF78AFF00210820FFF786FF94E003
:100E1000E448844208D101211020FFF77EFF002121
:100E20001020FFF77AFF88E0DF48844208D10121D3
:100E30002020FFF772FF00212020FFF76EFF7CE0EB
:100E4000DA48844208D101214014FFF759FF0021FC
:100E50006014FFF755FF70E0D548844209D10121A5
:100E6000C804FFF74DFF00214FF40020FFF748FFB3
:100E700063E0D048844209D101210805FFF740FF13
:100E800000214FF48010FFF73BFF56E0CA48844230
:100E900009D101214805FFF733FF00214FF400106D
:100EA000FFF72EFF49E0C548844208D101214020C8
:100EB000FFF733FF00214020FFF72FFF3DE0C04840
:100EC000844208D101218020FFF727FF00218020E4
:100ED000FFF723FF31E0BB48844208D10121801590
:100EE000FFF71BFF0021A015FFF717FF25E0B6480D
:100EF000844209D101210804FFF702FF00214FF4C9
:100F00008030FFF7FDFE18E0B048844209D101218E
:100F10004804FFF7F5FE00214FF40030FFF7F0FE24
:100F20000BE0AB48844208D101218804FFF7E8FEBA
:100F300000214FF48020FFF7E3FE10BD002202885D
:100F4000944B98420ED0994B98420BD0B0F1804F01
:100F500008D0914B984205D0904B984202D0904BCC
:100F6000984204D14FF68F731A404B881A438D4B29
:100F7000984207D08C4B984204D04FF6FF431A405A
:100F8000CB881A4302808B8883850B880385814B2D
:100F900098420BD0854B984208D08B4B984205D095
:100FA0008A4B984202D08A4B984201D10B7A038631
:100FB00001238382704770B5002400220023058C32
:100FC0004FF6FE7635400584028C8388048B4FF6FD
:100FD0008F752C40B51E2C400D882C43751E2A4061
:100FE0000D892A434D882A436A4DA8420BD06F4D84
:100FF000A84208D0744DA84205D0744DA84202D032
:10100000734DA84213D14FF6F7752A404D892A43F4
:101010004FF6FB752A408D882A434FF6FF652B401B
:101020004FF6FF552B408D892B43CD892B43838071
:101030000483CD888586028470BD70B500240022AB
:101040000023058C4FF6EF7635400584028C8388AB
:10105000048B48F6FF752C404FF6FF452C400D8859
:101060004FF6FF7606EA05252C434FF6DF752A403A
:101070000D8906EA05152A434D8806EA05152A4317
:10108000444DA84202D0494DA8421DD14FF67F756C
:101090002A404D894FF6FF7606EA05152A434FF69A
:1010A000BF752A408D8806EA05152A434FF6FF359D
:1010B0002B404FF2FF752B408D8906EA85052B43A7
:1010C000CD8906EA85052B4383800483CD88058777
:1010D000028470BD70B5002400220023058C4FF6F9
:1010E000FF6635400584028C8388848B4FF68F75AC
:1010F0002C404FF6FC752C400D882C434FF6FF55C5
:101100002A400D894FF6FF7606EA05252A434D88C9
:1011100006EA05252A431F4DA84202D0234DA842C6
:101120001DD14FF2FF752A404D894FF6FF7606EA32
:1011300005252A434FF6FF352A408D8806EA052506
:101140002A434EF6FF752B404DF6FF752B408D89D7
:1011500006EA05152B43CD8906EA05152B43838046
:101160008483CD888587028470BD70B500220023FA
:101170000024058C4EF6FF7635400584038C848868
:10118000828B48F6FF752A404FF6FF452A400D88AE
:1011900020E00000002C0140000400400008004056
:1011A000000C0040001000400014004000340140DA
:1011B000004C014000500140005401400018004024
:1011C000001C00400020004000400140004401405D
:1011D000004801404FF6FF7606EA05252A434DF602
:1011E000FF752B400D8906EA05352B434D8806EA2D
:1011F00005352B43FA4DA84202D0FA4DA84208D13A
:101200004BF6FF752C408D894FF6FF7606EA851563
:101210002C4384808283CD88A0F84050038470BD25
:10122000828B4FF2FF331A408283828B4FF6FF731B
:1012300003EA01231A4382837047F0B50C46154632
:10124000002200210026078C4EF6FF7C07EA0C07DF
:101250000784828B018C4FF6FF7707EA043640F64D
:10126000FF473A404FF6FF7707EA05273A434FF624
:10127000FF7707EA03373A43D94FB8420ED0D94F28
:10128000B8420BD0B0F1804F08D0D74FB84205D04C
:10129000D64FB84202D0D64FB84206D14DF6FF77AE
:1012A000394046F48057394305E047F6FF57394047
:1012B00044F48057394382830184F0BD828B4FF61A
:1012C000F3731A408283828B0A4382837047F0B59E
:1012D0000C461546002200210026078C4FF6FF6CB5
:1012E00007EA0C070784828B018C4FF6FF7707EA29
:1012F00004264FF60C773A404FF6FF7707EA0317BC
:101300002F433A43B64FB8420ED0B64FB8420BD037
:10131000B0F1804F08D0B44FB84205D0B34FB842B7
:1013200002D0B34FB84206D14FF6FF57394046F4CA
:101330008077394305E04FF2FF57394044F4807716
:10134000394382830184F0BD028B4FF2FF331A4090
:101350000283028B4FF6FF7303EA01231A430283D1
:101360007047F0B50C461546002200210026078C78
:101370004FF6EF7C07EA0C070784028B018C4FF6CF
:10138000FF7707EA041640F6FF473A404FF6FF772B
:1013900007EA03373A434FF6FF7707EA05273A4350
:1013A0008F4FB8420ED08F4FB8420BD0B0F1804F64
:1013B00008D08D4FB84205D08C4FB84202D08C4F28
:1013C000B84206D14FF6DF77394046F0100739436F
:1013D00005E04FF65F77394044F010073943028348
:1013E0000184F0BD028B4FF6F3731A400283028B27
:1013F0000A4302837047F0B50C46154600220021CF
:10140000068C4FF6FE773E400684028B018C4FF629
:101410000C7632407E1C06EA03162E433243704E91
:10142000B0420ED06F4EB0420BD0B0F1804F08D01A
:101430006D4EB04205D06D4EB04202D06C4EB042FF
:1014400006D14FF6FD76314044F00106314305E008
:101450004FF6F576314044F00106314302830184B2
:10146000F0BD70B505460C465D4885420ED05D481E
:1014700085420BD0B5F1804F08D05B48854205D03E
:101480005A48854202D05A48854200D100E000BF48
:10149000208850B92389A28861882846FFF7ABFFCE
:1014A000E1882846FFF79EFF25E0208804280AD11E
:1014B0002389A28861882846FFF753FFE1882846E0
:1014C000FFF742FF17E0208808280AD12389A28865
:1014D00061882846FFF7FBFEE1882846FFF7EEFE0D
:1014E00009E02389A28861882846FFF7A6FEE188E3
:1014F0002846FFF795FE70BD2DE9F04105460C46E4
:1015000000260127608808B9022600E00026A0888E
:10151000012801D1022700E001272088A0B92389F2
:10152000A28861882846FFF766FFE1882846FFF712
:1015300059FF23893A4631462846FFF712FFE188D2
:101540002846FFF701FF13E02389A2886188284617
:10155000FFF707FFE1882846FFF7F6FE23893A46A2
:1015600031462846FFF747FFE1882846FFF73AFF54
:10157000BDE8F0810A884B881A438B881A43CB88D0
:101580001A430B891A434B891A438B891A43A0F8D3
:10159000442070474FF6FF71818000210180C18097
:1015A0004180017270470021018041808180C180AB
:1015B000018141818181C181704700210180418089
:1015C000012181800021C1800181704700210180BB
:1015D00041808180C180018141818181704700000B
:1015E000002C01400034014000040040000800408D
:1015F000000C004021B1028842F00102028004E0A8
:1016000002884FF6FE731A400280704731B1B0F87D
:10161000442042F40042A0F8442005E0B0F8442001
:10162000C2F30E02A0F8442070471AB183890B431D
:10163000838102E083898B43838170478182704775
:1016400041EA0203A0F8483070471AB183890B437E
:10165000838102E083898B438381704701894FF640
:10166000F8721140018170470A46002101894FF646
:101670008F73194011430181704730B504460D4600
:1016800029462046FFF7F0FF208940F0070020811F
:1016900030BD2DE9F04104460D4616461F46602D2B
:1016A00006D13B46012231462046FFF75AFE05E0AF
:1016B0003B46012231462046FFF79DFE2946204643
:1016C000FFF7D2FF208940F007002081BDE8F081BC
:1016D00030B50C4600210189C9B24FF6FF7505EA05
:1016E0000325154325432943018130BD2DE9F041F0
:1016F00005460E4617469846002443463A4631466C
:101700002846FFF7E5FF2C894FF6F870044044F0B7
:1017100007044FF68F70044044F070042C81BDE83C
:10172000F081F0B504460D4616461F463B4632464C
:1017300029462046FFF7CCFF208940F480402081D5
:10174000F0BD0185828270470A46002101884FF66C
:101750008F731940114301807047F0B50C46154650
:101760001E460021002200230189028B038C4FF6C4
:10177000F877394021434FF6FC473A4040F20117D1
:101780003A434FF6DD773B404FF6FF7707EA0617FF
:101790002F433B43018102830384F0BD0A460021AD
:1017A000018B4FF68F7319401143018370470A462E
:1017B0000021018B48F6FF7319404FF6FF7303EACF
:1017C00002231943018370470A460021818B4FF69B
:1017D0008F7319401143818370470A460021818B22
:1017E00048F6FF7319404FF6FF7303EA02231943CB
:1017F0008183704721B1028842F08002028004E0B8
:1018000002884FF67F731A400280704721B18288A8
:1018100042F00402828004E082884FF6FB731A4093
:101820008280704721B1828842F00802828004E001
:1018300082884FF6F7731A408280704721B1828800
:1018400042F00102828004E082884FF6FE731A4063
:10185000828070470A460021018B4FF6F7731940CA
:101860001143018370470A460021018B4FF2FF7339
:1018700019404FF6FF7303EA0223194301837047AF
:101880000A460021818B4FF6F7731940114381837B
:1018900070470A460021818B4FF2FF7319404FF6C3
:1018A000FF7303EA02231943818370470A4600212C
:1018B000018B4FF6FB7319401143018370470A46B1
:1018C0000021018B4FF6FF3319404FF6FF7303EAF7
:1018D00002231943018370470A460021818B4FF68A
:1018E000FB7319401143818370470A460021818BA5
:1018F0004FF6FF3319404FF6FF7303EA02231943F3
:10190000818370470A460021018B4FF67F7319408F
:101910001143018370470A460021018BC1F30E0178
:101920004FF6FF7303EA02231943018370470A4607
:101930000021818B4FF67F731940114381837047DB
:101940000A460021818BC1F30E014FF6FF7303EAB3
:1019500002231943818370470A460021018C4FF608
:10196000FD7319401143018470470A460021018C20
:101970004FF6F77319401143018470470A4600215E
:10198000018C4FF6DF7319404FF6FF7303EA021321
:101990001943018470470A460021018C4FF67F737A
:1019A00019404FF6FF7303EA02131943018470478D
:1019B0000A460021018C4FF6FF5319404FF6FF7382
:1019C00003EA02231943018470470A460021018C6F
:1019D0004FF2FF7319404FF6FF7303EA02231943D6
:1019E000018470470A460021018C4DF6FF731940AF
:1019F0004FF6FF7303EA023319430184704730B591
:101A0000002301248C40A3B2048C9C430484048CE6
:101A100002FA01F5ADB22C43048430BD30B5002389
:101A200004248C40A3B2048C9C430484048C02FAEA
:101A300001F5ADB22C43048430BD70B503460020DF
:101A400000241846183001258D40ACB21D8CA543EA
:101A50001D8409B1082909D100EB6100056825F052
:101A6000700505600568154305600EE00D1FC5F3A0
:101A70004E052844056825F4E045056005684FF6E5
:101A8000FF7606EA02263543056070BD21B1028863
:101A900042F00202028004E002884FF6FD731A4011
:101AA0000280704721B1028842F00402028004E003
:101AB00002884FF6FB731A400280704721B182887A
:101AC00042F08002828004E082884FF67F731A40E1
:101AD0008280704702884FF6F7731A4002800288AE
:101AE0000A430280704782884FF68F731A408280C3
:101AF00082880A438280704702894FF6F8731A4041
:101B0000028102890A430281704702894FF67F737E
:101B10001A40028102890A4302817047818470471A
:101B2000818570478186704701877047818770473C
:101B3000A0F84010704702884FF6FF431A40028019
:101B400002880A43028070470146888E704701462A
:101B5000088F70470146888F70470146B1F84000F2
:101B600070470146888C70470146088D70470246D1
:101B70000020138A0B400BB1012000E000207047C9
:101B8000CA430282704730B5024600200023002479
:101B9000158A05EA0103958905EA010413B10CB120
:101BA000012000E0002030BDCA43028270470000DF
:101BB00010B50446FB48844209D101218803FFF790
:101BC0009FF800214FF48040FFF79AF832E0F64882
:101BD000844209D101214804FFF79FF800214FF406
:101BE0000030FFF79AF825E0F048844209D101213E
:101BF0008804FFF792F800214FF48020FFF78DF85A
:101C000018E0EB48844209D10121C804FFF785F8A8
:101C100000214FF40020FFF780F80BE0E5488442F4
:101C200008D101210805FFF778F800214FF4801052
:101C3000FFF773F810BD2DE9F04786B005460E4654
:101C40000024A24600BFA1460027B08900B100BF12
:101C50002F462C8A4CF6FF700440F08804432C82F7
:101C6000AC894EF6F3100440B0883189084371897D
:101C700008430443AC81AC8A4FF6FF400440B0896E
:101C80000443AC8201A8FEF7B4FFC648874202D1E4
:101C9000DDF810A001E0DDF80CA0A88900F40040F8
:101CA00040B10AEBCA0000EB0A1031684900B0FBF2
:101CB000F1F807E00AEBCA0000EB0A10316889006E
:101CC000B0FBF1F86420B8FBF0F0040120096421B6
:101CD00001FB1089A88900F4004040B1322000EBDC
:101CE000C900B0FBF1F000F00700044308E0322027
:101CF00000EB09106421B0FBF1F000F00F00044389
:101D00002C8106B0BDE8F0874FF416510160002128
:101D10008180C18001810C21418100218181704736
:101D200010B502460020108A4FF2FF0318400B88BE
:101D30004C8823438C882343CC8823431843108248
:101D400010BD0021018041808180C180704721B198
:101D5000828942F40052828104E082894DF6FF7349
:101D60001A4082817047F0B5034600240026002502
:101D7000002040F66A17B94200D100BF1846C1F3EF
:101D8000421401F01F06012707FA06F5012C01D1C4
:101D90000C3004E0022C01D1103000E014301AB1F4
:101DA00007682F43076002E00768AF430760F0BD94
:101DB0001AB1838A0B43838202E0838A8B43838236
:101DC0007047028A4FF6F0731A400282028A0A4371
:101DD0000282704782894FF2FF731A4082818289A2
:101DE0000A438281704721B1828942F002028281D6
:101DF00004E082894FF6FD731A4082817047028A9F
:101E00004FF6DF731A400282028A0A430282704749
:101E100021B1028A42F48042028204E0028A4BF637
:101E2000FF731A4002827047C1F308028280704734
:101E300001468888C0F308007047818941F001019C
:101E400081817047028BD2B20283028B42EA012267
:101E500002837047028B02F47F420283028B0A43A3
:101E60000283704721B1828A42F02002828204E01C
:101E7000828A4FF6DF731A408282704721B1828ACC
:101E800042F01002828204E0828A4FF6EF731A4019
:101E90008282704721B1828A42F00802828204E085
:101EA000828A4FF6F7731A408282704721B1828985
:101EB00042F40042828103E08289C2F30E028281F1
:101EC000704721B1828A42F40062828204E0828AF1
:101ED0004FF2FF731A4082827047828A4FF6FB737B
:101EE0001A408282828A0A438282704721B1828AA2
:101EF00042F00202828204E0828A4FF6FD731A40A9
:101F00008282704702460020B1F5007F00D100BFF9
:101F100013880B400BB1012000E00020704701F452
:101F20000072B2F5007F00D100BFCA430280704743
:101F300070B50246002400230025002040F66A16F2
:101F4000B14200D100BFC1F3421501F01F030126C9
:101F500006FA03F3012D02D19689334006E0022DE3
:101F600002D1168A334001E0968A33400C120126D2
:101F700006FA04F41688344013B10CB1012000E0D5
:101F8000002070BD10B50022002340F66A14A14263
:101F900000D100BF0A1201249440A3B2DC430480A4
:101FA00010BD0000003801400044004000480040DF
:101FB000004C00400050004010B56FF00400FEF7E8
:101FC000BCFA2E4800682E49B0FBF1F02D4908708C
:101FD0000846007800EB4001C1EBC0104FF6FF71DE
:101FE00001EAC0002849088010BD0146254A127840
:101FF0004A434FF0E0235A6100229A611A4612695F
:1020000042F001021A6100BF4FF0E022106900F0B7
:1020100001021AB100F48032002AF5D04FF0E0221C
:10202000126922F001024FF0E0231A6100229A6146
:1020300070470146144A12884A434FF0E0235A6120
:1020400000229A611A46126942F001021A6100BF29
:102050004FF0E022106900F001021AB100F4803262
:10206000002AF5D04FF0E022126922F001024FF071
:10207000E0231A6100229A617047000000000020EE
:1020800000127A00780000207A000020A34A0A405B
:102090000243A34B1A6070470146072323EA01025B
:1020A00012029F4B1B1D18684FF6FF0318409D4BF3
:1020B000184310439A4B1B1D186070472DE9F041DF
:1020C0000746884614461D462846FFF7E5FFC5F13A
:1020D000040007FA00F60F20284100EA0800064332
:1020E00006F00F06E21704EBD2625211920002F1E1
:1020F000E022D2F800212146E31704EBD3635B1101
:10210000A4EB431C012303FA0CF31A432046E31704
:1021100004EBD3635B119B0003F1E023C3F80021C0
:102120008148005D40EA06107F490855BDE8F0810E
:1021300070B504460B46CE1701EB9676C6F38700C2
:10214000CE1701EB9676B610A1EB8606B606350ED5
:10215000764B9B6943F00103744EB3614FEAB6338B
:1021600053F820300F26AE40B343714E46F820306E
:10217000334653F8203004FA05F61E436C4B43F8FF
:1021800020606C4B1B6801268E403343694E3360E0
:1021900002F0010343B1674B0C331B6801268E40EC
:1021A0003343644E0C36336002F0020343B1614B9B
:1021B00008331E6801238B401E435E4B08331E60AC
:1021C00070BD00B5002059490861C86014204861FD
:1021D00000208861C8610846006840F0010008607E
:1021E000084640685449084050494860084600681D
:1021F000524908404D4908600846006820F4802094
:1022000008600846406820F4FE00486000208860AE
:1022100000214FF00060FFF739FF00BD10B54048C6
:102220000830006840F004003D49083108603F482C
:10223000C06940F080503D49C8614148406840F461
:1022400080703F4948600846006840F0040008601C
:102250000846006840F002000860FDF7C5FF10BDA9
:102260003048001D2E49091D086070470146490687
:102270002E4A926942F001022C4B9A612C4A083A8C
:10228000526822F0E0622A4B083B5A601A465268B4
:102290000A435A60704730B504460025FFF791FFA6
:1022A0002248006840F480302049086000BF1F4881
:1022B0000068400C0028FAD04FF480601B49486049
:1022C000A01EC4B20846406840EA84404860084600
:1022D000406840F4803048601A48006840F032009E
:1022E000184908601148006840F080700F49086084
:1022F00000BF0E480068400E0028FAD00B48406826
:1023000040F002000949486005E008484068C0F311
:10231000870505F00305022DF7D130BD80FFFF1FB3
:1023200008ED00E00000FA0500E400E000100240C3
:1023300008000140000401400000FFF8FFFFF6FE26
:102340000070004000200240014600BF70472C4A48
:1023500012785AB900BF2B4A128802F04002002AB4
:10236000F9D0C2B2274B1B1D1A800AE000BF264AD3
:10237000128802F04002002AF9D0C2B2224B1B1D83
:102380001A80704710B586B00446012144F204005B
:10239000FEF79CFC4FF40070ADF8140003208DF89C
:1023A000160018208DF8170005A91848FEF7D2F975
:1023B0004FF48060ADF8140004208DF8170005A9D3
:1023C0001248FEF7C7F901940020ADF80800ADF8F7
:1023D0000A00ADF80C00ADF810000C20ADF80E00AE
:1023E00001A90948FFF727FC002240F225510648C1
:1023F000FFF7B9FC01210448FFF7A9FC06B010BDA6
:102400001B00002000480040003801400008014047
:1024100008B501210420FEF759FC4FF48050ADF8B7
:10242000000010208DF8030003208DF8020069469B
:102430000C48FEF78FF908BD18B900210A4A11604F
:102440000FE00A490968491C084A1160814208D115
:1024500005490968C943064AC2F8B0110021034A78
:102460001160704700080140B00121428000002047
:102470000000214208B501210420FEF727FC4FF49B
:102480000040ADF8000048208DF8030069464B4835
:10249000FEF760F908BD01464948006828B9494877
:1024A0000088401C474A108002E00020454A108006
:1024B0004348006828B94448007810B90120424ACE
:1024C000107042480078B0B93F480078012807D121
:1024D0003F480078401C3E4A107001203B4A107073
:1024E0003B480078022806D10020394A1070394A4A
:1024F00010800220704732480068012804D1002073
:10250000314A1070314A10703148007801281CD1CE
:1025100030480088401C2F4A1080104600888842AE
:102520000ADD28480088884206DA0020284A107010
:10253000284A10800120DDE722480088884204DD17
:102540000020234A1070234A10800020D2E722483E
:10255000007838B11A48006820B900201E49087078
:102560000120704716480068012801D11A490870F7
:102570000020F6E71948008840B91148006828B9DA
:1025800017480088401C1649088002E000201449C2
:10259000088013480088C82807DD01200F490880FB
:1025A00000200F490880012070470C48008801284E
:1025B00002D10020094908800020F5E70008014009
:1025C0003C0121428A000020840000208500002078
:1025D00086000020880000208C0000209000002051
:1025E0008E00002030B585B005460C460121022042
:1025F000FEF779FB01210820FEF768FB0120ADF80A
:10260000100028208DF8130004A96848FEF7A2F8EE
:102610000220ADF8100010208DF8130002208DF874
:10262000120004A96148FEF795F8ADF80850ADF81E
:1026300004400020ADF80A00ADF8060001A95C488E
:10264000FEF77CFC08205B490880002048800120C0
:1026500088800020C88008815548FEF702FF1D20B1
:102660008DF8000002208DF8010000208DF8020096
:1026700001208DF803006846FDF715FF01220921AE
:102680004B48FEF7D2FF01214948FEF7B3FF05B0E2
:1026900030BD10B50120484908600F20FFF7A5FCA8
:1026A00000204649C1F884014548007800F08000C8
:1026B000E8B14348007800F03F004249086008460E
:1026C000008800040860084600683F4909880844FB
:1026D0003C49086008460068AA2148434FF47A71D3
:1026E000B0FBF1F03749086000203549088010BD83
:1026F0002F49103108883249097801F080010029FA
:102700004ED100F00101D1B12D49097801F040010D
:10271000A9B12B49097801F03F013F290AD1284985
:10272000098841F08001264A11804FF6FF71264A40
:10273000118004E022490988491C214A118000F0D7
:10274000080169B31E49097801F0400199B11C499B
:10275000098841F080011A4A118015493C310988E5
:10276000194A118012492031098821F40071104A58
:102770002032118014E00021114A1180124A118088
:102780000F49098841F040010D4A11800021084A93
:1027900024321180111F098841F40071121F118029
:1027A0000021034A1032118070470000000C0140E4
:1027B00000040040CC01002084812142008021429D
:1027C00092000020440000209400002008B5012160
:1027D0000820FEF77BFA4FF4E840ADF80000102027
:1027E0008DF8030003208DF8020069462A48FDF7A2
:1027F000B1FF08BD30B589B005460C46FFF7E6FFCE
:102800000121C802FEF762FA01210420FEF75EFAF8
:102810004FF41060ADF8200018208DF8230003203D
:102820008DF8220008A91D48FDF794FFADF8185057
:10283000ADF814400020ADF81A00ADF8160005A957
:102840001748FEF77BFB6020ADF804000120ADF8CF
:1028500006000020ADF80A00ADF80C0001A91048F0
:10286000FEF7A9FB01A90E48FEF77FFC01210C48E9
:10287000FEF7CCFE08210A48FEF7ECFF08210848C5
:10288000FFF707F801210648FEF7B4FF01210448CD
:10289000FEF7B0FE09B030BD000C01400008014059
:1028A000002C014000B587B001210846FEF71BFA55
:1028B00001210420FEF70AFA0320ADF800000420ED
:1028C0008DF8030069466848FDF744FF04A8FEF749
:1028D00061FE0020ADF810004FF6FF70ADF8140057
:1028E0000020ADF81600ADF8120004A94FF08040AA
:1028F000FEF724FB00231A4603214FF08040FEF729
:102900002CFF01A8FEF759FE0A20ADF80C0001A922
:102910004007FEF7A6FD01218807FFF731F90122E4
:1029200011469007FEF781FE00214FF08040FFF72F
:10293000F5F801218807FEF75DFE07B000BD00B580
:1029400087B001210420FEF7CEF901210820FEF70F
:10295000BDF9C020ADF8000004208DF803006946E1
:102960004248FDF7F7FE04A8FEF714FE0020ADF87C
:1029700010004FF6FF70ADF814000020ADF81600FF
:10298000ADF8120004A93A48FEF7D8FA00231A4617
:1029900003213748FEF7E1FE01A8FEF70EFE0A20EC
:1029A000ADF80C0001A93248FEF75BFD012130486B
:1029B000FFF7E6F8012211462D48FEF736FE00210A
:1029C0002B48FFF7ABF801212948FEF713FE07B0AB
:1029D00000BD70B50546022D04D0032D0BD0042D8B
:1029E00019D10FE04FF08040808C04B200204FF0EE
:1029F0008041888411E01F48008804B200201D49EE
:102A000008800AE01A482430008804B200201849DF
:102A10002431088001E0002400BF00BF022D03D153
:102A2000214615A004F03EFF042D03D1214619A034
:102A300004F038FF204670BD0D48103000880C4867
:102A40001030008820F001000949103108807047DB
:102A50004FF08040008A4FF08040008A20F0010053
:102A60004FF080410882704700080140000C01408F
:102A700000080040240400407265616420456E63D4
:102A80006F646572206F6E65093A092564090D0A45
:102A9000000000007265616420456E636F646572BA
:102AA0002074776F093A092564090D0A00000000B7
:102AB00008B501210820FEF709F94FF44070ADF880
:102AC000000010208DF8030003208DF802006946F5
:102AD000F748FDF73FFE08BD10B5F548001D00683A
:102AE00020F0F000F249091D08600846006840F037
:102AF000300008600120EF490860EF48D0F8240159
:102B000008B9002010BD0120EA49091F0860FFF73D
:102B10006CFA0020E849C1F8A401E6488038006852
:102B200008B10020EEE70120FFF75FFA0020E1493D
:102B3000091F08600120E5E710B5DD48001D0068A9
:102B400020F0F000DA49091D08600846006840F0EE
:102B5000300008600020D749091F0860D649C1F835
:102B6000A4010120FFF741FA0120D249091F0860A2
:102B7000D149C1F8A401FFF738FA10BD10B50024FF
:102B8000CB48001D006820F0F000C949091D08600D
:102B90000846006840F0800008600120C5490860D0
:102BA000FFF723FA0120C449C1F8A001FFF71DFA7D
:102BB0000AE0601CC4B2322C03DDFFF7BDFF002029
:102BC00010BD0120FFF711FABA48803800680028CC
:102BD000EFD1B849091F08600120F1E710B50020C6
:102BE000B449091F0860B248001D006820F0F000D9
:102BF000AF49091D08600846006840F030000860D1
:102C00000020AD49C1F8A4010120FFF7EEF9012031
:102C1000A849091F0860FFF7E8F90020A649C1F894
:102C2000A00110BD10B50020A249091F0860A048EE
:102C3000001D006820F0F0009D49091D086008464D
:102C4000006840F03000086001209B49C1F8A401F1
:102C5000FFF7CBF901209749091F0860FFF7C5F975
:102C600000209549C1F8A00110BD70B504469048F8
:102C7000001D006820F0F0008D49091D086008461D
:102C8000006840F03000086000208A49091F086091
:102C9000002516E0E009874908606006040E01205F
:102CA000FFF7A3F901208449C1F8A001FFF79DF9BE
:102CB00000208049091F08600120FFF796F9681C71
:102CC000C5B2082DE6DB70BD2DE9F04105460E4684
:102CD00017469846FFF700FF10B90120BDE8F081C4
:102CE0006906080EFFF7C1FFFFF748FF18B9FFF7A5
:102CF00023FF0120F2E73046FFF7B7FFFFF73EFF63
:102D000000240BE018F80400FFF7AFFFFFF736FFD1
:102D100018B9FFF711FF0020E0E7641CBC42F1DBAB
:102D2000FFF70AFF0020D9E770B505460024604888
:102D3000001D006820F0F0005D49091D086008468C
:102D4000006840F080000860002617E00020594924
:102D5000091F08600220FFF748F901205649C1F811
:102D6000A0016006040E53488038006808B1601C5A
:102D7000C4B20220FFF739F9701CC6B2082EE5DB99
:102D800015B1FFF72BFF01E0FFF74CFF204670BDA8
:102D90002DE9F04106460F4614461D46FFF79CFEFE
:102DA00010B90120BDE8F0817106080EFFF75DFF44
:102DB000FFF7E4FE18B9FFF7BFFE0120F2E738463F
:102DC000FFF753FFFFF7DAFEFFF786FE012101EB65
:102DD0004601C8B2FFF749FFFFF7D0FE0DE0012C16
:102DE00004D10020FFF7A0FF287003E00120FFF7C7
:102DF0009BFF28706D1C601EC4B2002CEFD1FFF742
:102E00009BFE0020CEE770B505460E460024FFF776
:102E100063FE2846FFF729FF641CFFF7AFFE30462C
:102E2000FFF723FF641CFFF7A9FEFFF755FE691C9F
:102E3000C8B2FFF71AFF641CFFF7A0FE0020FFF7DF
:102E400073FF0446FFF778FE204670BD2DE9F04180
:102E50000746884615461E460024FFF73DFE3846C5
:102E6000FFF703FFFFF78AFE4046FFF7FEFEFFF77E
:102E700085FEFFF731FE791CC8B2FFF7F6FEFFF7BB
:102E80007DFE00BF0DE0681EA04204D00120FFF7C8
:102E90004BFF305503E00020FFF746FF3055601C24
:102EA000C4B2AC42EFDBFFF747FE2046BDE8F0813D
:102EB000000C0140A4812142008021422DE9F04113
:102EC00080460D4616461F460024FFF705FE404685
:102ED000FFF7CBFEFFF752FE2846FFF7C6FEFFF7CF
:102EE0004DFE00BF06E0385DFFF7BFFEFFF746FE70
:102EF000601CC4B2B442F6DBFFF71EFE0120BDE841
:102F0000F08170B505460E46144631462846FFF757
:102F10007AFF2070012070BD37B504460D4602AB24
:102F2000012229462046FFF7C9FF3EBD2DE9F8439F
:102F30000746884614461D46089E6A46414638465E
:102F4000FFF7DFFF28B3601CFF2101FA00F0C4F196
:102F500008012944491EFF220A41104300F0FF09DD
:102F6000C5F1080006FA00F0C6B2C4F10700064138
:102F70009DF8000000EA090000909DF80000304331
:102F800000909DF8002041463846FFF7C5FFBDE898
:102F9000F8830020FBE7F8B506460F4614461D46A9
:102FA0006A4639463046FFF7ACFF2DB10120A040FC
:102FB0009DF80010084305E00120A0409DF8001096
:102FC00021EA0000C0B200909DF80020394630464A
:102FD000FFF7A2FFF8BD000010B586B0044601213E
:102FE0000820FDF773FE01218804FDF77CFE4FF4F5
:102FF0008060ADF8140003208DF8160018208DF8BD
:10300000170005A9F448FDF7A5FB4FF40060ADF8E3
:10301000140004208DF8170005A9EF48FDF79AFB6E
:1030200027208DF8000000208DF8010001208DF888
:1030300002008DF803006846FDF735FA0194002080
:10304000ADF80800ADF80A00ADF80C00ADF81000BE
:103050000C20ADF80E0001A9E048FEF7ECFD0122BE
:1030600040F22551DD48FEF77EFE0121DB48FEF7E8
:103070006EFE06B010BD2DE9FF5F40F22551D74826
:10308000FEF756FF002876D0D448FEF7D1FED4498B
:10309000086008460078D3490870D148006859286C
:1030A00002D10220D0490870CD480068582802D1CA
:1030B0000120CD490870CA4800680A2865DDC84863
:1030C00000685A2809D10020C8490870C84908700A
:1030D000C8490870C849087057E0C14800684128CD
:1030E0000AD10120C14908700020C1490870C149B6
:1030F0000870C149087048E0B948006845280BD1FC
:103100000020BA4908700120B94908700020B94967
:103110000870B949087038E0B1480068422807D003
:10312000AF480068432803D0AD48006844280AD15E
:103130000020AE490870AE490870AE490870012001
:10314000AD49087021E0A6480068462807D0A44889
:103150000068472803D0A248006848280CD1002006
:10316000A2490870A24908700120A24908700020F5
:10317000A149087009E007E100209C4908709C49BA
:1031800008709C4908709C490870954800680A2896
:1031900065DA0120944908709148006848B9002018
:1031A00092490870924908709249087092490870D3
:1031B00055E08B480068012809D18C49087000202F
:1031C0008B4908708B4908708B49087047E0844828
:1031D000006805280BD1002084490870012084492B
:1031E00008700020834908708349087037E07C48E4
:1031F0000068022807D07A480068032803D078487E
:10320000006804280AD100207849087078490870BD
:103210007849087001207849087020E070480068FB
:10322000062807D06E480068072803D06C4800685D
:1032300008280BD100206D4908706D4908700120E5
:103240006C49087000206C49087008E0002067494C
:1032500008706749087067490870674908706148D5
:1032600000787B2802D10120644908705D4800780D
:103270007D2802D102206149087060480078012849
:103280000AD1584800785E495E4A127888545D48F1
:103290000078401C5B49087058480078022873D1B8
:1032A0005848007807F0E0FC574908605448C07857
:1032B000502803D10120554908707DE05048C0785E
:1032C000572803D101205249087075E04C484078D6
:1032D000232871D04B4800784E49087034E04949A2
:1032E00009784C4A1278881A06F076FF80464246E2
:1032F0000B460020484906F001F804460D464549B2
:103300000978491E3E4A515CA1F1300006F064FF85
:10331000064622462B4606F0B3FF82468B463F48C0
:10332000006807F0BDFA52465B46CDE9000106F0A1
:103330003FFDCDE9020106F009FD38490860354836
:103340000078401E33490870324800780428C6DAF5
:103350002B484078303809282DD2DFE800F0050DE1
:10336000161E262728292B002D492C48006807F017
:1033700031FB2C4908601EE029492848006807F005
:1033800029FB2949086016E023E025492348006805
:1033900007F020FB254908600DE021491F4800681F
:1033A00007F018FB2249086005E004E003E002E0B2
:1033B00001E001E000BF00BF002010490870114982
:1033C0000870144908701549086032210C4804F04F
:1033D0006CFBBDE8FF9F0000000C0140004800406E
:1033E000A8000020980000201900002015000020EF
:1033F000160000201700002018000020AC0000205C
:10340000D6010020AD000020400000204B0000202D
:103410004C000020AE00002000002440B00000203E
:103420000000C84254000020580000205C0000202A
:10343000600000201FB501210846FDF747FC01216F
:103440000820FDF743FC2020ADF80C0048208DF843
:103450000F0003A91148FDF77DF905210120FDF7B3
:103460008FFA2020019000208DF808000C208DF8A4
:10347000090001208DF80A0001A8FDF78BF817203C
:103480008DF8000002208DF8010001208DF8020067
:103490008DF803006846FDF706F81FBD000C0140DB
:1034A0000146002901DA484200E00846704700B5AD
:1034B00003460A46002B12DA0020FE49086001206C
:1034C000FD49C1F8B801FD4800681B1AFC480068B6
:1034D0004042834213DCFA48006843420FE0012077
:1034E000F44908600020F449C1F8B801F3480068C5
:1034F0000344F3480068834201DBF148036818463F
:10350000FFF7CEFFEF490880002A13DA0020E949CF
:103510000C3108600120E849C1F8B001E7480068B3
:10352000121AE74800684042824214DCE44800680E
:10353000424210E00120DF490C3108600020DE49E2
:10354000C1F8B001DD4800680244DD4800688242ED
:1035500001DBDB4802681046FFF7A2FFD9490C31B6
:10356000088000BDD8480078012804D1D7480068F9
:103570006438D6490860D6480078012804D1D54877
:1035800000686430D3490860D0480068CC490968B5
:103590004942884204DACA4800684042CB49086080
:1035A000CA480068C6490968884203DDC448006803
:1035B000C6490860C7480068C1490968494288424D
:1035C00004DABF4800684042C2490860C148006848
:1035D000BB490968884203DDB9480068BD490860F5
:1035E00070472DE9F05FBC480078012807D1BB483F
:1035F0000078012803D1BA48BA49086002E0BA4805
:10360000B8490860B048007801280CD1B348007868
:1036100007F02AFB04462146B248006807F0DAF9B1
:10362000B249086016E0AA48007801280FD1AB48DB
:10363000007807F019FB0546AA48006880F00044AE
:103640002946204607F0C6F9A849086002E0002094
:10365000A6490860A048007801281BD1A44800684A
:10366000B0F5FA7F16D2A3480078012812D0A248FC
:10367000007801280ED09948007807F0F5FA054641
:103680009848006880F000442946204607F0A2F9D7
:103690009649086099490968994A12681144084690
:1036A00007F0CAFA974908609748006807F0F8F8E9
:1036B0000646964A964B06F0E3FD044606F046FBA6
:1036C000914908608F48006807F0EAF880468F4A01
:1036D000904B06F0D5FD04460D468B48006807F078
:1036E000DFF8064622462B4606F062FB824606F0CD
:1036F0002DFB85490860084601688748006807F087
:10370000FBF88549086085498348006807F0C0FBDD
:1037100002D282488049086081497F48006807F0EA
:10372000B7FA02D27E487C4908607E4801687A4830
:10373000006807F0E1FA04467B48016872480068B7
:1037400007F0DAFA0546214607F0D6F8774908600F
:1037500077480078012802D100206F49086073483B
:10376000006807F02DFABDE8F09F2DE9F05F814673
:103770000C46484607F094F807464FF033326D4B3D
:1037800006F0A4FF054606F0E1FA82466A480168A1
:10379000204607F0B1FA064651466848006807F02F
:1037A000ABFA0746314607F0A7F8054607F008FAD6
:1037B00083465846BDE8F09F2DE9F04F89B0814619
:1037C00003F076FE5E490860B9F1010F1BD103F0EA
:1037D00076FC5C4800685C4908605C49B1F902000D
:1037E00007F02AFA5A4908605849B1F9040007F06D
:1037F00023FA584908605849B1F9040007F01CFA47
:10380000564908600FE14621D020FFF7FCFA8046B8
:103810004521D020FFF7F7FA08EB0027384607F0DC
:103820000BFA04464821D020FFF7EDFA80464721E5
:10383000D020FFF7E8FA08EB0027384607F0FCF93C
:1038400006463C21D020FFF7DEFA80463B21D020FF
:10385000FFF7D9FA08EB0027384607F0EDF9834661
:103860004021D020FFF7CFFA80463F21D020FFF73C
:10387000CAFA08EB0027384607F0DEF905464FF094
:103880008E41204607F004FB05D24FF08F412046C1
:1038900007F03AFB04464FF08E41304607F0F8FA45
:1038A00005D24FF08F41304607F02EFB06464FF011
:1038B0008E4155E0A8812142008021420001002074
:1038C000B4000020342C014015000020240000200A
:1038D00016000020280000204A00002019000020C7
:1038E00000003442E80000200000DC42E00000203C
:1038F0004400002017000020180000201C000020B9
:1039000020000020D8000020DC0000209A9999991E
:103910009999E93F9999C93FE400002000401C466D
:1039200000401CC6600000205C000020D400002085
:103930001A00002033330FC058000020540000202C
:103940002C0000204C010020340000203C0100200D
:10395000380000203C0000204201002050000020E0
:10396000584607F095FA05D24FF08F41584607F0B8
:10397000CBFA83464FF08E41284607F089FA05D2EC
:103980004FF08F41284607F0BFFA054684F000400B
:10399000F8490860284606F083FFCDE90001584643
:1039A00006F07EFF0746DDE9002305F0E7FB002275
:1039B000F14BCDE9020106F063FCF04AF04BCDE992
:1039C000040106F0B1FACDE9060106F0BFF982461E
:1039D000204606F065FF4FF06632EA4BCDE906015E
:1039E00006F0A2FA074606F0B1F90446E648007868
:1039F000022806D184F000473946504603F0A8FD5E
:103A000009E0E1480078032805D184F000473946F1
:103A1000504603F0B4FEDD480068DD490860DD482B
:103A20000660DD48056009B0BDE8F08F70B5DB4881
:103A3000006800287ED12020D9490860D948007844
:103A400008B9012000E00020D6490870D648007867
:103A500001280BD1D5480078401CC0B2D34908706A
:103A60000A2803D100200870CF490870CD4800789B
:103A7000012805D1C4480078FFF79EFE002070BDE4
:103A80000220FEF7A6FF4042C94908600420FEF765
:103A9000A0FFC8490860BC480078FFF78DFEC44805
:103AA0000168C5A003F0FEFEC2480168C7A003F08C
:103AB000F9FEB748006806F0F3FE044622460B46BE
:103AC000C7A003F0EFFEAB480168B1480068FFF7FC
:103AD0004CFEC9490860B7480168B5480068FFF75F
:103AE00080FDC6490860C448006809680844C449A4
:103AF00009680844C3490860BF480068BF490968AD
:103B00000844BF490968401ABF490860BD480168B8
:103B1000BEA003F0C7FEBC480168C2A003F0C2FE0D
:103B2000FFF720FDB8480168B6480068FFF7BFFC02
:103B3000B44800E008E00168C0A003F0B3FEB2485A
:103B40000168C4A003F0AEFE002098E72DE9F84F0D
:103B500005460E469146C5480078582191FBF0F77E
:103B6000384607F069F80446DFF804A34FF0000B6D
:103B7000C0480078012803D0BF480078012834D11C
:103B80004FF07E51BD48006806F0B6FEBB490746BF
:103B900008604FF07E5106F0DFFF07D1A819FFF74C
:103BA0007FFC074607F048F8B5490860B44801684B
:103BB000B44806F00FFFB44908600846006806F0F4
:103BC0006FFE07464FF03332B04B06F01DFB02D2BA
:103BD000AF48AD490860AF49AB48006807F058F9F5
:103BE0000BD2AC48A849086007E0AB48A64908607A
:103BF0000020A2490860A24908609E480078012878
:103C000008D1A1480168A548006807F07DF9A349DB
:103C100008600FE098480078012808D19A480168A8
:103C20009E48006806F068FE9C49086002E000209B
:103C30009A49086021469948006807F029F901D29D
:103C40009648046084F0004794480168384607F0BD
:103C50001FF903D284F00040904908609048007832
:103C6000012803D08F480078012802D14FF07C5BF7
:103C700001E04FF0000B5946484607F03DF8009030
:103C80008648006880F000485146404607F034F806
:103C90000746009907F038F983490860084600682C
:103CA00006F08EFFBDE8F88F70B53220FEF7F3FB0B
:103CB0000546012D07D17D48007808B9012000E0B4
:103CC00000207A490870022D07D17948007808B998
:103CD000012000E0002076490870FEF74BFC044606
:103CE000012C07D17348007808B9012000E00020BA
:103CF0007049087070BD70B505460E466E4928467D
:103D000006F0C6FF08D36D49284607F0C1F803D373
:103D10006648007801280ED1012400201F49A431F3
:103D200008606749C1F8A8011C49A03108606449CE
:103D3000C1F8B00100E00024204670BD2DE9F04735
:103D400081460E4614461D465E48008878B92046D6
:103D5000FFF7A6FB02462846FFF7A2FB10441E28E9
:103D600006DA59480088401C57490880B1E0BAE09B
:103D7000ACE000003800002000806640F1D4C85359
:103D8000FB21094066663040140000207C010020C1
:103D9000340000203C00002050000020148121420B
:103DA00014040140C4000020490000204800002005
:103DB0001C00002020000020456E636F6465725F68
:103DC0006F6E653A092564090D0A0000456E636F40
:103DD0006465725F74776F3A092564090D0A000003
:103DE000416E676C655F42616C616E63653A09257F
:103DF0002E3466090D0A0000B8000020BC00002027
:103E0000C00000202400002028000020CFDEB7F9E9
:103E1000C7B050574D094D4F544F313A09256409E9
:103E20000D0A0000CFDEB7F9C7B050574D094D4F0E
:103E3000544F323A092564090D0A0000CFDEB7F964
:103E4000BAF350574D094D4F544F313A0925640983
:103E50000D0A0000CFDEB7F9BAF350574D094D4FA8
:103E6000544F323A092564090D0A00001900002058
:103E7000000028421700002018000020FC0000204D
:103E8000F400002000004842F80000203333E33FF4
:103E90009A99193F000040406666663FEC0000209A
:103EA0001500002016000020F00000201A0000205D
:103EB0001B0000204A000020000020C20000204219
:103EC00000802142040100200601002000204D490D
:103ED00008804C4800880A2805DD01204A490880EE
:103EE00000204849088048480088012826D14748D2
:103EF0000088401C80B245490880C82803DD0020A6
:103F00000880414908804249484606F0C1FF15D261
:103F1000304606F0C5FC07464FF066323D4B06F0D2
:103F2000ADFA0BD2304606F0BBFC07463A4A3B4B93
:103F300006F06AF902D2022033490880324800882C
:103F4000022816D136480088401C80B234490880C7
:103F5000642803DD002008802B4908806019FFF7E2
:103F60009FFA872805DD0020274908800120BDE849
:103F7000F0870020FBE72DE9F04180460C4615460E
:103F80002848007810B90020BDE8F0812648008854
:103F9000B8B9404606F084FC0646244A244B06F095
:103FA0006DFA0ED2404606F07BFC06464FF06632B4
:103FB000204B06F029F904D21CB915B901201A4981
:103FC000088019480088012819D11B480088401C26
:103FD00080B219490880322803DD00200880124988
:103FE0000880032C0BDD032D09DD3C2C07DA3C2D6A
:103FF00005DA00200C49088008800120C4E7002071
:10400000C2E7000006010020040100200801002092
:104010000020CB4666E637C09A99999999193040A5
:104020000A0100201A0000200C010020CDCCCCCCCD
:10403000CCCC2BC0666618400E01002038B5044673
:10404000FB4890F82400C0B114B10220009001E0B8
:1040500000200090F64A1268D17BF54A5268107829
:104060006B460122FEF730FE10B14FF0FF3038BD35
:104070009DF80010EE48417423E0ED48807A10B9B5
:104080004FF0FF30F3E724B1E948407C08B100204D
:10409000EDE714B10120009001E000200090E44A17
:1040A0001268D17BE24A526810786B460122FEF713
:1040B0000BFE10B14FF0FF30D9E79DF80010DC483F
:1040C00041740020D3E738B5002419E0D8480068CF
:1040D000C07AA04204D0D6480068407DA04200D1FA
:1040E0000CE0D349496808786B4601222146FEF767
:1040F0004FFE10B14FF0FF3038BD00BF601CC4B29E
:10410000CB4840680079A042E0DC0020F4E770B5BD
:1041100004460D46C6480068C07AA04204D0C44890
:104120000068407DA04202D14FF0FF3070BDC04812
:1041300040680079A04202DC4FF0FF30F6E7BC494E
:10414000496808782B4601222146FEF721FEEDE75B
:1041500038B50446B64890F82300A04201D10020AB
:1041600038BD14B13020009001E000200090B0482C
:10417000807C20B19DF8000040F002000090AC4827
:1041800090F8220020B19DF8000040F080000090DF
:10419000A74A1268117DA64A526810786B46012220
:1041A000FEF792FD10B14FF0FF30D9E7A04880F83C
:1041B00023400020D4E738B5044604F0700010B165
:1041C0000120009005E014B10020009001E04020A3
:1041D0000090974A1268917C954A526810786B4615
:1041E0000122FEF771FD20B1002191488172481E25
:1041F00038BD9DF8000020F040018D48017300207B
:10420000009004F0400020B99DF8000040F0040048
:10421000009004F0200020B99DF8000040F002005A
:10422000009004F0100020B99DF8000040F001005B
:10423000009004F0080020B99DF8000040F038001C
:1042400000907B4A1268D17C794A526810786B469C
:104250000122FEF739FD20B1002175488172481E08
:10426000C6E724B1082C02D00020FFF771FF704888
:104270008472002101753220FDF7DBFE0020B7E7D4
:1042800038B504466A48807CA04201D1002038BD80
:10429000002C46D0664A12681179654A5268107837
:1042A0006B460122FEF774FD10B14FF0FF30EEE7D0
:1042B0009DF8000020F0200000905D4A12681179FE
:1042C0005B4A526810786B460122FEF7FDFC10B184
:1042D0004FF0FF30DBE70320FDF7ABFE022000903C
:1042E000534890F8220020B19DF8000040F0800073
:1042F00000904F4890F8230020B19DF8000040F056
:10430000300000904A4A1268117D494A526810787C
:104310006B460122FEF7D8FC002851D04FF0FF3049
:10432000B5E7434A12681179414A526810786B46E2
:104330000122FEF72DFD10B14FF0FF30A7E73C48FA
:10434000807A00F0010028B19DF8000040F02000C4
:10435000009004E09DF8000020F020000090344A16
:1043600012681179324A526810786B460122FEF7C2
:10437000ABFC10B14FF0FF3089E70320FDF759FE89
:104380002B4890F8220010B18020009001E000201E
:104390000090274890F8230020B19DF8000040F0DD
:1043A00030000090224A1268117D214A526810782C
:1043B0006B460122FEF788FC10B14FF0FF3066E734
:1043C0001B488474002062E708B51948807A10B948
:1043D0004FF0FF3008BD00200090154A1268D17BD5
:1043E000134A526810786B460122FEF76DFC10B13B
:1043F0004FF0FF30EEE70E4A126851790C4A5268CE
:1044000010786B460122FEF75FFC10B14FF0FF30D1
:10441000E0E7074A12681179054A526810786B463E
:104420000122FEF751FC28B14FF0FF30D2E7000027
:1044300010010020F74890F82400002850D00C20EC
:104440000090F44A12681179F24A526810786B466B
:104450000122FEF739FC10B14FF0FF30BAE7C0205F
:104460000090EC48807A00F0010020B19DF8000037
:1044700040F020000090E74A12681179E54A52683E
:1044800010786B460122FEF71FFC10B14FF0FF3091
:10449000A0E7E048407C10B10220009001E000203D
:1044A0000090DC4A1268D17BDA4A526810786B4679
:1044B0000122FEF709FC10B14FF0FF308AE700201F
:1044C0000090D44A12685179D24A526810786B46EB
:1044D0000122FEF7F9FB002852D04FF0FF3079E7B8
:1044E00004200090CB4A12681179CA4A52681078A9
:1044F0006B460122FEF7E8FB10B14FF0FF3069E791
:10450000C448807C20B9C348807A00F0010010B90B
:104510004020009001E060200090BE4A12681179AE
:10452000BC4A526810786B460122FEF7CDFB10B1F1
:104530004FF0FF304EE7B748407C10B101200090AB
:1045400001E000200090B34A1268D17BB14A526862
:1045500010786B460122FEF7B7FB10B14FF0FF3029
:1045600038E7AC4A12685179AA4A52681078A94BC8
:1045700010330122FEF7A8FB10B14FF0FF3029E7FE
:10458000002027E770B50446002624F00104A14866
:1045900090F8240008B1002070BD9E48807A10B9C0
:1045A0004FF0FF30F8E79B48057C807A204099491E
:1045B00008740846007CA04202D04FF0FF3600E0AD
:1045C000002614B99348007D18B10120FFF736FD8D
:1045D00002E00020FFF732FD3CB1FFF7F5FE20B10D
:1045E0008C4805744FF0FF30D6E73046D4E738B535
:1045F00004468848807A10B94FF0FF3038BDBC2C93
:1046000002DB0120009015E0622C02DB022000900A
:1046100010E02A2C02DB032000900BE0142C02DBBC
:104620000420009006E00A2C02DB0520009001E047
:10463000062000907748C07A9DF80010884201D18A
:104640000020DBE7734A12689178724A526810784A
:104650006B460122FEF738FB10B14FF0FF30CDE77B
:104660009DF800106B48C1720020C7E738B50446BA
:10467000282C02DD4FF0FF3038BDDCB90020FFF7F9
:1046800067FD00208DF8000007208DF80100614AC9
:104690001268917C5F4A526810786B460222FEF7DE
:1046A00013FB10B14FF0FF30E6E7002159480175C8
:1046B0000020E1E70120FFF74BFD20208DF80000EE
:1046C000012C06D100208DF801000520FFF78FFF97
:1046D00017E0052C06DC01208DF801000520FFF70E
:1046E00086FF0EE0142C06DC02208DF801000A2063
:1046F000FFF77DFF05E003208DF801001420FFF790
:1047000076FF9DF80100072101EB8010C0B28DF803
:104710000100404A1268917C3E4A526810786B460C
:104720000222FEF7D1FA10B14FF0FF30A4E70821C2
:104730003848817200210173012101750020FFF7C3
:1047400021FF002098E738B504463248807A10B936
:104750004FF0FF3038BD2F4890F8240010B14FF0D3
:10476000FF30F7E72B48007D50B134B1282C04DC32
:10477000E0B2FFF77BFF0020ECE70020FFF776FFB9
:10478000042C01DA042404E0B4F57A7F01DD4FF44F
:104790007A744FF47A7090FBF4F0401EC0B200902F
:1047A0001C4A126851781B4A526810786B460122E5
:1047B000FEF78AFA10B14FF0FF30CBE79DF800000A
:1047C000401C4FF47A7191FBF0F081B21148C18125
:1047D0000146C9894810FFF70AFF0020BAE738B53B
:1047E00004460C48807A10B94FF0FF3038BD022CD7
:1047F00006D0042C07D0082C08D0102C0FD10BE0C9
:10480000002000900EE0082000900BE010200090A7
:1048100008E00000100100201820009002E04FF096
:10482000FF30E3E700BFF948407A9DF80010B0EB95
:10483000E10F01D10020D9E7F44A1268D179F34A97
:10484000526810786B460122FEF73EFA10B14FF025
:10485000FF30CBE79DF80000C110EC48417200200A
:10486000C4E738B50446E948807A10B94FF0FF3004
:1048700038BDFA2C09D0B4F5FA7F09D0B4F57A7FA7
:1048800009D0B4F5FA6F0CD108E0002000900BE0DD
:104890000820009008E01020009005E0182000900B
:1048A00002E04FF0FF30E3E700BFD848007A9DF800
:1048B0000010B0EBE10F01D10020D9E7D34A126814
:1048C0009179D24A526810786B460122FEF7FCF9C2
:1048D00010B14FF0FF30CBE79DF80000C010CB497E
:1048E00008720020C4E71CB580208DF80000C74A7C
:1048F0001268917CC54A526810786B460122FEF717
:10490000E3F910B14FF0FF301CBD6420FDF791FBBF
:1049100000208DF80000BD4A1268917CBB4A5268A5
:1049200010786B460122FEF7CFF910B14FF0FF303F
:10493000EAE7B64A1268917DB44A526810786B462D
:104940000622FEF725FA10B14FF0FF30DCE79DF8A4
:104950000500C007400F9DF8031001F0010140EA77
:1049600041009DF8011001F0010140EA010494B1F9
:10497000012C03D10121A548C17431E0022C03D1DF
:104980000021A248C1742BE02146A1A002F08AFFB9
:104990004FF0FF30B8E79D4A1268D1789B4A5268C1
:1049A00010786B460122FEF7F3F910B14FF0FF309B
:1049B000AAE79DF8000000F00F042CB99E4802F011
:1049C00071FF4FF0FF309FE7042C06D19BA002F04F
:1049D00069FF01218D48C17402E000218B48C17438
:1049E000FF218A488172FF2088490872FF21874889
:1049F0004172C1724FF6FF71C181FF210174817450
:104A00000121017380F82210002180F823104175E4
:104A100001751630016041608160163880F82410FD
:104A200080F82510C1844FF4FA60FFF71AFF10B127
:104A30004FF0FF3068E70220FFF7D1FE10B14FF0D2
:104A4000FF3061E72A20FFF7D2FD10B14FF0FF30B1
:104A50005AE73220FFF777FE10B14FF0FF3053E7EF
:104A60000020FFF78FFD10B14FF0FF304CE7002022
:104A7000FFF706FC10B14FF0FF3045E70020FFF7CD
:104A80009AFB002040E770477CB504460D465F481E
:104A9000807A00F0700010B94FF0FF307CBD5B4AA7
:104AA0001268117B594A526810786B460622FEF74D
:104AB0006FF910B14FF0FF30F0E79DF801009DF85D
:104AC000001040EA012000B220809DF803009DF80C
:104AD000021040EA012000B260809DF805009DF8B8
:104AE000041040EA012000B2A08015B12846FFF76B
:104AF000CAFF0020D2E77CB504460D464348807AC1
:104B000000F0080010B94FF0FF307CBD3F4A12683A
:104B1000517B3E4A526810786B460622FEF738F900
:104B200010B14FF0FF30F0E79DF801009DF8001044
:104B300040EA012000B220809DF803009DF8021099
:104B400040EA012000B260809DF805009DF8041045
:104B500040EA012000B2A08015B12846FFF793FF7C
:104B60000020D2E72DE9FE4F05460C462748807A03
:104B700018B94FF0FF30BDE8FE8F244A1268917BD0
:104B8000224A5268107802AB0222FEF701F910B1F6
:104B90004FF0FF30EFE79DF809009DF8081040EA5C
:104BA000012006B214B12046FFF76DFF174949688E
:104BB000C88806F059F8154901904968B1F908000C
:104BC00006F03AF88346304606F036F8594600902B
:104BD00006F09AF98246019905F0FCFE81461F49CC
:104BE00005F08AFE80464FF08F4106F085F80746B3
:104BF00005F0E6FF28600020BDE710B588B0044648
:104C00001CB94FF0FF3008B010BD29E010010020A2
:104C1000556E737570706F7274656420736F66740F
:104C2000776172652070726F647563742072657647
:104C30002025642E0A0000003CBF000848616C6615
:104C40002073656E73697469766974792070617216
:104C50007420666F756E642E0D0A000000000C4211
:104C6000206830B9606820B9A06810B9002008B089
:104C700010BDFA494968087806AB03221146FEF7D1
:104C800087F810B14FF0FF30F1E79DF818000821C8
:104C900001EB201000F00F00ADF800009DF81900A6
:104CA00001EB201000F00F00ADF802009DF81A0093
:104CB00001EB201000F00F00ADF804002068410067
:104CC000BDF90000403091FBF0F000B2ADF81000EB
:104CD00060684100BDF90200403091FBF0F000B285
:104CE000ADF81200A0684100BDF90400403091FB0E
:104CF000F0F000B2ADF81400D8494968087806AB66
:104D000006221146FEF744F810B14FF0FF30AEE72F
:104D10009DF819009DF8181040EA012000B2ADF886
:104D200008009DF81B009DF81A1040EA012000B20F
:104D3000ADF80A009DF81D009DF81C1040EA012006
:104D400000B2ADF80C00BDF81000BDF80810084422
:104D500000B2ADF81000BDF81200BDF80A1008440A
:104D600000B2ADF81200BDF81400BDF80C100844F4
:104D700000B2ADF81400BDF81000000A8DF818005C
:104D8000BDF81000C0B28DF81900BDF81200000A7D
:104D90008DF81A00BDF81200C0B28DF81B00BDF8E6
:104DA0001400000A8DF81C00BDF81400C0B28DF884
:104DB0001D00AA494968087806AB06221146FDF78E
:104DC00083FF10B14FF0FF3051E700204FE701465D
:104DD000A248007A30B1012807D0022809D0032860
:104DE0000FD10AE0FA2008800EE04FF4FA70088034
:104DF0000AE04FF47A70088006E04FF4FA60088009
:104E000002E00020088000BF00BF0020704701467C
:104E10009248407A30B1012807D0022808D00328F0
:104E20000CD108E0022008700BE00420087008E0B4
:104E30000820087005E01020087002E04FF0FF30F5
:104E4000704700BF8548C07C18B108784006000E46
:104E500008700020F4E701468048C07A082817D27D
:104E6000DFE800F01704070A0D101318BC200880B3
:104E700013E06220088010E02A2008800DE0142052
:104E800008800AE00A20088007E00520088004E086
:104E900000BF00BF0020088000BF00BF0020704797
:104EA00001466E4890F8240010B14FF0FF30704773
:104EB0006A48C08908800020F9E701460020088080
:104EC000401E704701464FF0FF307047014663486F
:104ED000007A30B1012807D0022808D003280CD16D
:104EE00008E05F4808600BE05E48086008E05E4844
:104EF000086005E05D48086002E04FF0FF30704751
:104F000000BF0020FBE701465448407A30B1012839
:104F100008D002280AD0032810D10BE04FF48040BB
:104F200008800EE041F69C7008800AE04FF4805043
:104F3000088006E04FF40060088002E04FF0FF3088
:104F4000704700BF4548C07C10B1088840100880F9
:104F50000020F5E701464148007C087000207047BA
:104F600001463E48807A10B10120087001E000201F
:104F700008700020704738B504463848807A10B968
:104F80004FF0FF3038BD354A1268117C334A526801
:104F900010786B460222FDF7FBFE10B14FF0FF3098
:104FA000F0E79DF801009DF8001040EA012000B2F2
:104FB00020800020E6E72DE9FE4F0746884692460E
:104FC0001D46DDF830B000260024244890F8240067
:104FD00010B1601EBDE8FE8F002028701F48807A47
:104FE00010B94FF0FF30F5E71C48007C10B94FF0C6
:104FF000FF30EFE71948007C00F0400008B1B01C1A
:10500000C6B21648007C00F0200008B1B01CC6B241
:105010001248007C00F0100008B1B01CC6B20F4866
:10502000007C00F0080008B1B01DC6B20B4A12683F
:10503000917A0A4A526810786B460222FDF7A8FE60
:1050400010B14FF0FF30C5E79DF801009DF800104A
:1050500040EA0129B1450BDA0020BBE7100100202E
:105060000000034300008342333303423333834160
:10507000FC4840684088B9EB600F17DDF94A1268B8
:10508000517CF84A526810786B460122FDF780FE89
:1050900010B14FF0FF309DE79DF8000000F01000C8
:1050A00020B1FFF791F96FF0010093E75046FFF749
:1050B000EAFCEC4A1268D17AEA4A526810786B46E8
:1050C0003246FDF765FE10B14FF0FF3082E799FBE5
:1050D000F6F0401E8BF8000000202870B4422AD061
:1050E000E048007C00F0080028B3601C1DF80000B8
:1050F0001DF8041040EA012000B2A8F80000E01CEE
:105100001DF80010A01C1DF8000041EA002000B2AC
:10511000A8F80200601D1DF80010201D1DF80000F9
:1051200041EA002000B2A8F80400287840F0080006
:105130002870A01D84B2B44213D0CA48007C00F08D
:10514000400070B1601C1DF800001DF8041040EA1A
:10515000012000B23880287840F040002870A01C60
:1051600084B2B44213D0BF48007C00F0200070B17C
:10517000601C1DF800001DF8041040EA012000B278
:105180007880287840F020002870A01C84B2B442B7
:1051900013D0B448007C00F0100070B1601C1DF802
:1051A00000001DF8041040EA012000B2B880287801
:1051B00040F010002870A01C84B200200AE7F8B567
:1051C00004460F461646A74890F8240010B94FF041
:1051D000FF30F8BDA348807A10B94FF0FF30F8E7F0
:1051E000A04A1268917A9F4A526810786B46022250
:1051F000FDF7CEFD10B14FF0FF30EAE79DF801005A
:105200009DF8001040EA0125A54203DA0020307025
:10521000401EDEE7934840684088B5EB600F17DD1D
:10522000904A1268517C8F4A526810786B4601226E
:10523000FDF7AEFD10B14FF0FF30CAE79DF800005A
:1052400000F0100020B1FFF7BFF86FF00100C0E7D9
:10525000E2B2844B1B68D97A824B5B6818783B4674
:10526000FDF796FD10B14FF0FF30B2E795FBF4F07B
:10527000401E30700020ACE701467A4880F82210CA
:10528000002070477CB5054676494968087801AB2F
:1052900004220D21FDF77CFD08B107207CBD9DF89F
:1052A0000700C0F301109DF8041001F0E00140EA8E
:1052B000E1008DF800009DF80700C0F381009DF823
:1052C000051001F0E00140EAE1008DF801009DF8D1
:1052D000070000F003009DF8061001F0E00140EA2D
:1052E000E1008DF8020000241CE01DF8040018B94C
:1052F000002045F8240013E05B4845F8240006E050
:1053000055F82400594905F0F7FC45F824001DF82C
:105310000400401EC0B20DF804000028F0D100BF08
:10532000601CC4B2032CE0DB0020B7E72DE9FE4F80
:1053300006460F4600256846FFF7A4FF002442E01A
:1053400056F8240057F82410A0EB010ABAF1000F18
:1053500001DB514601E0CAF10001084605F06CFC92
:1053600083464FF08F4105F035FB80465DF8240001
:10537000002105F0F1FB16D05DF82410404605F041
:1053800029FB82464FF07E5105F0BEFD814629F093
:10539000004A3748416A504605F07AFD12D2012092
:1053A000A04005430EE03248C169404605F070FC5C
:1053B00005D32F48016A404605F06AFD02D201205C
:1053C000A0400543641C032CBADB2846BDE8FE8FD1
:1053D0002DE9FC5F06460F460025224949680878FA
:1053E00001AB03220D21FDF7D3FC10B10720BDE86E
:1053F000FC9F9DF8040000F01F008DF804009DF84C
:10540000050000F01F008DF805009DF8060000F073
:105410001F008DF80600002462E056F8240057F8BB
:105420002410A0EB010BBBF1000F01DB594601E09A
:10543000CBF10001084605F0FFFB4FF08F410090D3
:1054400005F0C8FA814601A8005DC0B308490868A4
:1054500005F00AFC83465946064805F0BBFA80462B
:105460000FE00000100100207B14AE3E1D5A843F67
:1054700010B1000800B04C45FE49404605F03CFC28
:10548000804601A8005D401EC0B201A90855002851
:10549000F2D14146484605F09DFA83464FF07E51D1
:1054A00005F032FD82462AF0004BF34881695846E8
:1054B00005F0EEFC13D20120A04005430FE0FFE70A
:1054C000ED480169484605F0E3FB05D3EA48416928
:1054D000484605F0DDFC02D20120A0400543641CD3
:1054E000032C9ADB284682E72DE9F04F87B005466A
:1054F0000C46914601208DF8100000208DF8110017
:10550000DE4A1268917CDD4A5268107804AB0222B0
:10551000FDF7DAFB20B14FF0FF3007B0BDE8F08FA8
:10552000C820FCF786FD00208DF81000D34A1268D1
:10553000D17BD24A5268107804AB0122FDF7C4FB3C
:1055400010B14FF0FF30E8E7CC4A12685179CB4AEE
:105550005268107804AB0122FDF7B6FB10B14FF092
:10556000FF30DAE7C54A1268917CC44A5268107865
:1055700004AB0122FDF7A8FB10B14FF0FF30CCE7E0
:10558000BE4A1268D17DBD4A5268107804AB012230
:10559000FDF79AFB10B14FF0FF30BEE7B74A126833
:1055A0001179B64A5268107804AB0122FDF78CFBE2
:1055B00010B14FF0FF30B0E70C208DF81000AF4A6B
:1055C00012681179AD4A5268107804AB0122FDF7D8
:1055D0007BFB10B14FF0FF309FE70F20FCF729FD58
:1055E000A648806A407A8DF81000A44A1268917823
:1055F000A24A5268107804AB0122FDF765FB10B196
:105600004FF0FF3089E79D48806A007A8DF81000DE
:105610009A4A12685178994A5268107804AB01226C
:10562000FDF752FB10B14FF0FF3076E7B9F1000FF4
:1056300007D09248806A807A40F0E0008DF8100030
:1056400004E08E48806A807A8DF810008B4A1268D8
:1056500091798A4A5268107804AB0122FDF734FB35
:1056600010B14FF0FF3058E7B9F1000F07D0834871
:10567000806AC07A40F0E0008DF8100003E07E48B8
:10568000C07A8DF810007D4A1268D1797B4A526841
:10569000107804AB0122FDF717FB10B14FF0FF307B
:1056A0003BE7B9F1000F02D0C820FCF7C2FC402054
:1056B0008DF81000714A12681179704A526810789A
:1056C00004AB0122FDF700FB10B14FF0FF3024E7DF
:1056D00078208DF81000694A12685179674A52683B
:1056E000107804AB0122FDF7EFFA10B14FF0FF3054
:1056F00013E761498889FCF79CFC00208DF81000B5
:105700005E4A126851795D4A5268107804AB0122F2
:10571000FDF7DAFA10B14FF0FF30FEE6574A126893
:10572000917A564A5268107804AB0222FDF730FB9A
:1057300010B14FF0FF30F0E69DF811009DF8101009
:1057400040EA012B0C209BFBF0F0C6B20020A860C1
:1057500068602860A06060602060824665E0474A1B
:105760001268D17A454A5268107804AB0C22FDF7D2
:105770000FFB10B14FF0FF30CFE69DF811009DF800
:10578000101040EA012000B2ADF808009DF81300A7
:105790009DF8121040EA012000B2ADF80A009DF811
:1057A00015009DF8141040EA012000B2ADF80C007D
:1057B000BDF90810206808442060BDF90A1060682F
:1057C00008446060BDF90C10A0680844A0609DF812
:1057D00017009DF8161040EA012000B2ADF8000055
:1057E0009DF819009DF8181040EA012000B2ADF8AC
:1057F00002009DF81B009DF81A1040EA012000B23B
:10580000ADF80400BDF90010286808442860BDF90F
:105810000210686808446860BDF90410A86808446C
:10582000A8600AF1010000F0FF0AB24597DB1248B8
:10583000D0F800C02868C117090441EA10410704E4
:1058400062460023384602F008F832460023CDE9CC
:10585000020102F002F828600748D0F800C068682A
:10586000C117090441EA1041070462460023384683
:1058700006E0000054E3853F10B10008100100204D
:1058800001F0EBFF32460023CDE9020101F0E5FF14
:105890006860FE48D0F800C0A868C117090441EA52
:1058A0001041070462460023384601F0D6FF324615
:1058B0000023CDE9020101F0D0FFA860F348D0F841
:1058C00004C02168C817000440EA11480F0462466A
:1058D00000233846414601F0C0FF32460023CDE99F
:1058E000020101F0BAFF2060E848D0F804C0606807
:1058F000C117090441EA10410704624600233846F3
:1059000001F0ABFF32460023CDE9020101F0A5FF13
:105910006060DE48D0F804C0A068C117090441EAFD
:105920001041070462460023384601F096FF3246D4
:105930000023CDE9020101F090FFA060A0680028DB
:1059400004DDA068A0F58030A06003E0A06800F549
:105950008030A0600020E0E538B50446CC4890F8DF
:105960002400A04201D1002038BD24B3C84890F8DB
:10597000250010B94FF0FF30F6E70020FEF75EFB80
:105980000020FEF77DFCC249C88CFEF7DCFE00203B
:105990000090BF49496808786B4601222321FDF732
:1059A00093F90121BA4880F824100120FEF746FB44
:1059B000FEF70AFD13E00020FEF740FBB448007C30
:1059C0000090B349496808786B4601222321FDF70E
:1059D0007BF90021AE4880F82410FEF7F5FC00208A
:1059E000C2E72DE9F04F8DB083460F4602200C90A0
:1059F000A74890F8240020B10020FFF7ADFF012652
:105A000000E0002603A8FFF7E2F905A8FFF7FFF979
:105A100001A8FFF720FA02A8FFF742FA9C4890F885
:105A20000AA004A8FFF796FA002407E000223946EE
:105A30005846FFF759FD00B902E0641C022CF5DB63
:105A400000BF022C01D1002528E0002407E001223C
:105A500006A909A8FFF748FD00B902E0641C022C62
:105A6000F5DB00BF022C01D1002517E006A938465E
:105A7000FFF75CFC00F0FF0809A95846FFF7A8FCF7
:105A800000F0FF090025B9F1000F01D145F0010533
:105A9000B8F1000F01D145F0020500BFFF207C499D
:105AA0000872FF217A484172C1724FF6FF71C181BD
:105AB000FF218172017401210173BDF80C00FEF712
:105AC000D0FE9DF81400FEF78AFEBDF80400FEF734
:105AD0008EFDBDF80800FEF736FE5046FEF76BFB64
